:02000000F429E1
:06000600000000000800EC
:0E000C00213083120313FD00FD0B0A280800AB
:10001A000F3083120313FC004730FD00FD0B132839
:0A002A00FC0B132800000000080082
:1000340083120313F801F9011030FC00710DF80D5F
:10004400F90D7408F8027508031C750FF9020318FA
:1000540032287408F80775080318750FF907031098
:0A006400F00DF10DFC0B2028080040
:10006E0083160313B41B3E28831288134028831271
:10007E0088178316341B46288312081348288312C8
:10008E0008178316B41A4E2883128812502883122A
:10009E0088168316341A562883120812582883128B
:1000AE00081664185C2888145D28881088150320AB
:1000BE0088118316B4196628831288136828831250
:1000CE008817831634196E2883120813702883122A
:1000DE0008178316B418762883128812782883128C
:1000EE008816831634187E288312081280288312ED
:1000FE00081664188428881485288810881503200B
:0E010E008811641C8C280D208D280620080006
:10011C008312031364106E088316B4003720641422
:02012C000800C9
:0E012E008312031350088A004F088200080055
:10013C0083120313EE0105306E020318AE286E080D
:10014C00831633078400203080008312EE0AA12826
:10015C006E0883163307840080018312EE036E0849
:10016C00831633078312EF000A30F400F50183166F
:10017C003108F0003208F1001A207808F0007908F4
:10018C00F1003030F0076F088400700880000A30EE
:10019C00F400F50183163108F0003208F1001A2042
:1001AC0070088316B1007108B20000307106031D8F
:1001BC00E12800307006031DE428E7288312EE03C3
:0401CC00B52808004A
:1001D00083120313EA01EB016508EC006608ED00E9
:1001E00080306606F00080307002031DF928003070
:1001F0006502031807290130EA000030EB006508AA
:10020000003CEC006608031C013EED01ED026C08A9
:100210008316B10083126D088316B200831267083B
:100220008316B3009E20063083120313E8000030CB
:10023000E9006908003C031D1F296808003C0318F9
:100240003A2968086707F20001306802F0000030C0
:10025000031C013E6902F100700867078400000872
:10026000F00072088400700880000130E802031C6E
:10027000E903192967088400203080006A086B04AC
:1002800003195829E801E901680867078400000894
:10029000203A031D4F29E80A0319E90A44290130CD
:1002A000E802031CE9036808670784002D3080001A
:0202B000080044
:1002B2006B29803083120313E5007E29C030E500EC
:1002C2007E299430E5007E29D430E5007E298030F5
:1002D200E5007E29831203136508013A03195A299E
:1002E2006508023A03195F296508033A031962296E
:1002F2006508043A0319652968296603F000650850
:10030200F0077008E50070088316B4003720641007
:10031200E80168086707840000080319982968083B
:10032200670784000008EE008E20E80A8A29641418
:020332000800C1
:1003340097208A110A128000840ACF0A0319D00A6E
:08034400F003031D9A290800D3
:10034C008316031388118810081288120813881357
:10035C0083128811881088130813881208120D2034
:10036C000D200D20881608168815032088110D20E5
:10037C008815032088110D208815032088110D2065
:10038C0008128815032088110D2088150320881168
:10039C00881288178815032088110D2088130816D9
:1003AC0088150320881108128815032088110D2048
:1003BC0088150320881108168815032088110D2034
:1003CC000812881503208811881708178816081634
:0C03DC008815032088110D20641408000F
:1003E8000E230330831603138500FF30860088012F
:1003F800A62101308316B40037200C308316B400D0
:1004080037200130E5000130E6002030E7005921AF
:100418004108E5004208E6005330E700E8200130D3
:10042800E5000B30E6005330E70059210230E500C3
:100438000130E6004330E70059214D08E5004E0839
:10044800E600A030E700E8200230E5000B30E600C7
:10045800A030E70059210B30FB002630FC005D304E
:10046800FD00FD0B352AFC0B352AFB0B352A000055
:1004780000000618622AC10A0319C20A0630FB00E6
:100488001330FC00AD30FD00FD0B482AFC0B482A58
:10049800FB0B482A0000000080304206F000803044
:1004A8007002031D592A0130410203185E2AD10146
:1004B800D201622A0130D1000030D2008618882A81
:1004C8000130C102031CC2030630FB001330FC00DC
:1004D800AD30FD00FD0B6E2AFC0B6E2AFB0B6E2A5D
:1004E8000000000080304206F00080307002031DDA
:1004F8007F2A01304102031C862A0130D1000030D6
:10050800D200882AD101D20180304206F000803022
:100518007002031D912A01304102031C952A05151A
:10052800962A051180304206F00080307002031DC3
:100538009F2A00304102031CD82A0130E50001300F
:10054800E6003530E70059214108E5004208E60099
:100558005330E700E8200130E5000B30E600533067
:10056800E70059210230E5000130E6002B30E700B2
:1005780059215108E5005208E600A030E700E820BC
:100588000230E5000B30E600A030E70059210230C8
:10059800FB000430FC00BA30FD00FD0BD12AFC0B37
:0C05A800D12AFB0BD12A00003D2AD92AE1
:10061C00203084002F3083120313F000DF30CF0022
:08062C000230D0009A21080001
:1005BE0043346F3475346E347434653472345E344F
:0605CE003A342034003431
:1005D4004C34693467346834743473343A342034B2
:0405E400203400348B
:1005E80043346F3475346E34743465347234733410
:0805F8005E343A342034003473
:04060000003400348E
:100604004C34693467346834743473343A34203481
:04061400203400345A
:040618000034003476
:02400E004A2F37
:00000001FF
